:020000040800F2
:10000000005000205D200008751E00087D1E0008BD
:10001000851E00088D1E0008951E000800000000C7
:100020000000000000000000000000009D1E00080D
:10003000A91E000800000000B51E0008C11E00082F
:10004000A5200008A5200008A5200008A52000087C
:10005000A5200008A5200008A5200008A52000086C
:10006000A5200008A5200008A5200008A52000085C
:10007000A5200008A5200008A5200008A52000084C
:10008000A5200008A5200008A5200008A52000083C
:10009000A5200008A5200008A5200008A52000082C
:1000A000A5200008A5200008A5200008A52000081C
:1000B000A5200008A5200008A5200008A52000080C
:1000C000A5200008A5200008A5200008A5200008FC
:1000D000A5200008A5200008A5200008A5200008EC
:1000E000A5200008A5200008A520000800000000A9
:1000F0000000000000000000000000000000000000
:0C01000000000000000000005FF808F1A3
:1001100010B5054C237833B9044B13B10448AFF341
:1001200000800123237010BDDC01002000000000CE
:100130001871000808B5034B1BB103490348AFF31E
:10014000008008BD00000000E001002018710008D8
:10015000034613F8012B002AFBD1181A0138704707
:1001600081F0004102E000BF83F0004330B54FEA68
:1001700041044FEA430594EA050F08BF90EA020FD5
:100180001FBF54EA000C55EA020C7FEA645C7FEA68
:10019000655C00F0E2804FEA5454D4EB5555B8BF8B
:1001A0006D420CDD2C4480EA020281EA030382EAFC
:1001B000000083EA010180EA020281EA0303362D8E
:1001C00088BF30BD11F0004F4FEA01314FF4801C61
:1001D0004CEA113102D0404261EB410113F0004F73
:1001E0004FEA03334CEA133302D0524263EB43032A
:1001F00094EA050F00F0A780A4F10104D5F1200EC8
:100200000DDB02FA0EFC22FA05F2801841F1000122
:1002100003FA0EF2801843FA05F359410EE0A5F1F6
:1002200020050EF1200E012A03FA0EFC28BF4CF027
:10023000020C43FA05F3C01851EBE37101F00045DD
:1002400007D54FF0000EDCF1000C7EEB00006EEBEA
:100250000101B1F5801F1BD3B1F5001F0CD3490874
:100260005FEA30004FEA3C0C04F101044FEA4452CB
:1002700012F5800F80F09A80BCF1004F08BF5FEA52
:10028000500C50F1000041EB045141EA050130BD32
:100290005FEA4C0C404141EB0101013C28BFB1F544
:1002A000801FE9D291F0000F04BF01460020B1FA8F
:1002B00081F308BF2033A3F10B03B3F120020CDA62
:1002C0000C3208DD02F1140CC2F10C0201FA0CF040
:1002D00021FA02F10CE002F11402D8BFC2F1200CA5
:1002E00001FA02F120FA0CFCDCBF41EA0C0190405B
:1002F000E41AA2BF01EB0451294330BD6FEA0404A4
:100300001F3C1CDA0C340EDC04F11404C4F120028E
:1003100020FA04F001FA02F340EA030021FA04F3A0
:1003200045EA030130BDC4F10C04C4F1200220FAF7
:1003300002F001FA04F340EA0300294630BD21FA35
:1003400004F0294630BD94F0000F83F4801306BFFB
:1003500081F480110134013D4EE77FEA645C18BFEF
:100360007FEA655C29D094EA050F08BF90EA020F86
:1003700005D054EA000C04BF1946104630BD91EA7E
:10038000030F1EBF0021002030BD5FEA545C05D181
:100390004000494128BF41F0004130BD14F58004C0
:1003A0003CBF01F5801130BD01F0004545F0FE4134
:1003B00041F470014FF0000030BD7FEA645C1ABF69
:1003C000194610467FEA655C1CBF0B46024650EAA0
:1003D000013406BF52EA033591EA030F41F40021CC
:1003E00030BD00BF90F0000F04BF0021704730B552
:1003F0004FF4806404F132044FF000054FF0000127
:1004000050E700BF90F0000F04BF0021704730B5E7
:100410004FF4806404F1320410F0004548BF4042BC
:100420004FF000013EE700BF42004FEAE2014FEA11
:1004300031014FEA02701FBF12F07F4393F07F4FEC
:1004400081F06051704732F07F4208BF704793F0EF
:100450007F4F04BF41F40021704730B54FF4607402
:1004600001F0004521F000411CE700BF50EA010205
:1004700008BF704730B54FF000050AE050EA0102AE
:1004800008BF704730B511F0004502D5404261EB1E
:1004900041014FF4806404F132045FEA915C3FF45F
:1004A000D8AE4FF003025FEADC0C18BF03325FEAFC
:1004B000DC0C18BF033202EBDC02C2F1200300FAAD
:1004C00003FC20FA02F001FA03FE40EA0E0021FAD2
:1004D00002F11444BDE600BF70B54FF0FF0C4CF4C0
:1004E000E06C1CEA11541DBF1CEA135594EA0C0F72
:1004F00095EA0C0F00F0DEF82C4481EA030621EAAD
:100500004C5123EA4C5350EA013518BF52EA0335E7
:1005100041F4801143F4801338D0A0FB02CE4FF099
:100520000005E1FB02E506F00042E0FB03E54FF0C9
:100530000006E1FB03569CF0000F18BF4EF0010EC1
:10054000A4F1FF04B6F5007F64F5407404D25FEABD
:100550004E0E6D4146EB060642EAC62141EA555170
:100560004FEAC52040EA5E504FEACE2EB4F1FD0CB2
:1005700088BFBCF5E06F1ED8BEF1004F08BF5FEA30
:10058000500E50F1000041EB045170BD06F00046E2
:1005900046EA010140EA020081EA0301B4EB5C048F
:1005A000C2BFD4EB0C0541EA045170BD41F4801187
:1005B0004FF0000E013C00F3AB8014F1360FDEBFAC
:1005C000002001F0004170BDC4F10004203C35DA88
:1005D0000C341BDC04F11404C4F1200500FA05F30B
:1005E00020FA04F001FA05F240EA020001F00042AC
:1005F00021F0004110EBD37021FA04F642EB060122
:100600005EEA430E08BF20EAD37070BDC4F10C044B
:10061000C4F1200500FA04F320FA05F001FA04F20F
:1006200040EA020001F0004110EBD37041F10001FB
:100630005EEA430E08BF20EAD37070BDC4F1200506
:1006400000FA05F24EEA020E20FA04F301FA05F26E
:1006500043EA020321FA04F001F0004121FA04F216
:1006600020EA020000EBD3705EEA430E08BF20EAE6
:10067000D37070BD94F0000F0FD101F00046400020
:1006800041EB010111F4801F08BF013CF7D041EAA2
:10069000060195F0000F18BF704703F000465200A6
:1006A00043EB030313F4801F08BF013DF7D043EA77
:1006B0000603704794EA0C0F0CEA135518BF95EA2D
:1006C0000C0F0CD050EA410618BF52EA4306D1D1B4
:1006D00081EA030101F000414FF0000070BD50EAD3
:1006E000410606BF1046194652EA430619D094EA5D
:1006F0000C0F02D150EA013613D195EA0C0F05D147
:1007000052EA03361CBF104619460AD181EA03019A
:1007100001F0004141F0FE4141F470014FF0000052
:1007200070BD41F0FE4141F4780170BD70B54FF0ED
:10073000FF0C4CF4E06C1CEA11541DBF1CEA13556D
:1007400094EA0C0F95EA0C0F00F0A7F8A4EB05044F
:1007500081EA030E52EA03354FEA013100F0888046
:100760004FEA03334FF0805545EA131343EA12630F
:100770004FEA022245EA111545EA10654FEA0026C4
:100780000EF000419D4208BF964244F1FD0404F57D
:10079000407402D25B084FEA3202B61A65EB0305D9
:1007A0005B084FEA32024FF480104FF4002CB6EB96
:1007B000020E75EB030E22BFB61A754640EA0C0016
:1007C0005B084FEA3202B6EB020E75EB030E22BF56
:1007D000B61A754640EA5C005B084FEA3202B6EB97
:1007E000020E75EB030E22BFB61A754640EA9C0056
:1007F0005B084FEA3202B6EB020E75EB030E22BF26
:10080000B61A754640EADC0055EA060E18D04FEAE3
:10081000051545EA16754FEA06164FEAC30343EA83
:1008200052734FEAC2025FEA1C1CC0D111F4801F50
:100830000BD141EA00014FF000004FF0004CB6E749
:1008400011F4801F04BF01430020B4F1FD0C88BFE8
:10085000BCF5E06F3FF6AFAEB5EB030C04BFB6EBF3
:10086000020C5FEA500C50F1000041EB045170BDE6
:100870000EF0004E4EEA113114EB5C04C2BFD4EB13
:100880000C0541EA045170BD41F480114FF0000E97
:10089000013C90E645EA060E8DE60CEA135594EA13
:1008A0000C0F08BF95EA0C0F3FF43BAF94EA0C0F16
:1008B0000AD150EA01347FF434AF95EA0C0F7FF48B
:1008C00025AF104619462CE795EA0C0F06D152EADF
:1008D00003353FF4FDAE1046194622E750EA4106C3
:1008E00018BF52EA43067FF4C5AE50EA41047FF4D4
:1008F0000DAF52EA43057FF4EBAE12E74FF0FF3C39
:1009000006E000BF4FF0010C02E000BF4FF0010C09
:100910004DF804CD4FEA410C7FEA6C5C4FEA430C82
:1009200018BF7FEA6C5C1BD001B050EA410C0CBFD1
:1009300052EA430C91EA030F02BF90EA020F002033
:10094000704710F1000F91EA030F58BF994208BF9A
:1009500090422CBFD8176FEAE37040F00100704757
:100960004FEA410C7FEA6C5C02D150EA013C07D1AE
:100970004FEA430C7FEA6C5CD6D152EA033CD3D0F9
:100980005DF8040B704700BF8446104662468C46F3
:100990001946634600E000BF01B5FFF7B7FF002826
:1009A00048BF10F1000F01BD4DF808EDFFF7F4FF4F
:1009B0000CBF012000205DF808FB00BF4DF808EDDA
:1009C000FFF7EAFF34BF012000205DF808FB00BFFD
:1009D0004DF808EDFFF7E0FF94BF012000205DF81F
:1009E00008FB00BF4DF808EDFFF7CEFF94BF0120D4
:1009F00000205DF808FB00BF4DF808EDFFF7C4FFCD
:100A000034BF012000205DF808FB00BF4FEA410C15
:100A10007FEA6C5C02D150EA013C0AD14FEA430CF8
:100A20007FEA6C5C02D152EA033C02D14FF0000035
:100A300070474FF0010070474FEA410212F5001273
:100A400015D211D56FF47873B3EB625212D94FEA15
:100A5000C12343F0004343EA505311F0004F23FAFF
:100A600002F018BF404270474FF00000704750EA54
:100A7000013005D111F0004008BF6FF00040704711
:100A80004FF00000704700BF4FEA4102B2F1E0436F
:100A900024BFB3F5001CDCF1FE5C0DD901F0004C65
:100AA0004FEAC0024CEA5070B2F1004F40EB8300B5
:100AB00008BF20F00100704711F0804F21D113F1E1
:100AC0003872BCBF01F00040704741F480114FEA1A
:100AD0005252C2F11802C2F1200C10FA0CF320FAA3
:100AE00002F018BF40F001004FEAC1234FEAD323C0
:100AF00003FA0CFC40EA0C0023FA02F34FEA43032A
:100B0000CCE77FEA625307D150EA01331EBF4FF0B2
:100B1000FE4040F44000704701F0004040F0FE40CD
:100B200040F40000704700BF80F0004002E000BFCA
:100B300081F0004142001FBF5FEA410392EA030FC8
:100B40007FEA226C7FEA236C6AD04FEA1262D2EB12
:100B50001363C1BFD218414048404140B8BF5B4217
:100B6000192B88BF704710F0004F40F4000020F0B0
:100B70007F4018BF404211F0004F41F4000121F0C6
:100B80007F4118BF494292EA030F3FD0A2F1010210
:100B900041FA03FC10EB0C00C3F1200301FA03F14E
:100BA00000F0004302D5494260EB4000B0F5000F71
:100BB00013D3B0F1807F06D340084FEA310102F130
:100BC0000102FE2A51D2B1F1004F40EBC25008BFE2
:100BD00020F0010040EA03007047490040EB0000AC
:100BE000013A28BFB0F5000FEDD2B0FA80FCACF1AD
:100BF000080CB2EB0C0200FA0CF0AABF00EBC250DA
:100C000052421843BCBFD0401843704792F0000FC7
:100C100081F4000106BF80F400000132013BB5E71A
:100C20004FEA41037FEA226C18BF7FEA236C21D090
:100C300092EA030F04D092F0000F08BF08467047F5
:100C400090EA010F1CBF0020704712F07F4F04D1C3
:100C5000400028BF40F00040704712F100723CBFD6
:100C600000F50000704700F0004343F0FE4040F400
:100C7000000070477FEA226216BF08467FEA2363BE
:100C80000146420206BF5FEA412390EA010F40F4A9
:100C9000800070474FF0000304E000BF10F00043F5
:100CA00048BF40425FEA000C08BF704743F09643DC
:100CB00001464FF000001CE050EA010208BF7047F7
:100CC0004FF000030AE000BF50EA010208BF70477E
:100CD00011F0004302D5404261EB41015FEA010C93
:100CE00002BF84460146002043F0B64308BFA3F18B
:100CF0008053A3F50003BCFA8CF2083AA3EBC2536D
:100D000010DB01FA02FC634400FA02FCC2F120028B
:100D1000BCF1004F20FA02F243EB020008BF20F0C2
:100D20000100704702F1200201FA02FCC2F1200228
:100D300050EA4C0021FA02F243EB020008BF20EA1D
:100D4000DC7070474FF0FF0C1CEAD0521EBF1CEA4B
:100D5000D15392EA0C0F93EA0C0F6FD01A4480EA39
:100D6000010C400218BF5FEA41211ED04FF0006322
:100D700043EA501043EA5111A0FB01310CF000404E
:100D8000B1F5000F3EBF490041EAD3715B0040EA74
:100D9000010062F17F02FD2A1DD8B3F1004F40EB44
:100DA000C25008BF20F00100704790F0000F0CF017
:100DB000004C08BF49024CEA502040EA51207F3ADB
:100DC000C2BFD2F1FF0340EAC250704740F40000B6
:100DD0004FF00003013A5DDC12F1190FDCBF00F0A7
:100DE00000407047C2F10002410021FA02F1C2F155
:100DF000200200FA02FC5FEA310040F1000053EAF1
:100E00004C0308BF20EADC70704792F0000F00F03E
:100E1000004C02BF400010F4000F013AF9D040EA44
:100E20000C0093F0000F01F0004C02BF490011F4D8
:100E3000000F013BF9D041EA0C018FE70CEAD153D6
:100E400092EA0C0F18BF93EA0C0F0AD030F0004C56
:100E500018BF31F0004CD8D180EA010000F000400A
:100E6000704790F0000F17BF90F0004F084691F0C8
:100E7000000F91F0004F14D092EA0C0F01D1420202
:100E80000FD193EA0C0F03D14B0218BF084608D1CB
:100E900080EA010000F0004040F0FE4040F4000015
:100EA000704740F0FE4040F4400070474FF0FF0CA8
:100EB0001CEAD0521EBF1CEAD15392EA0C0F93EAEF
:100EC0000C0F69D0A2EB030280EA010C49024FEA41
:100ED000402037D04FF0805343EA111143EA1013FA
:100EE0000CF000408B4238BF5B0042F17D024FF4B2
:100EF000000C8B4224BF5B1A40EA0C00B3EB510F8D
:100F000024BFA3EB510340EA5C00B3EB910F24BF75
:100F1000A3EB910340EA9C00B3EBD10F24BFA3EBFA
:100F2000D10340EADC001B0118BF5FEA1C1CE0D1C2
:100F3000FD2A3FF650AF8B4240EBC25008BF20F075
:100F4000010070470CF0004C4CEA50207F32C2BFC9
:100F5000D2F1FF0340EAC250704740F400004FF066
:100F60000003013A37E792F0000F00F0004C02BF97
:100F7000400010F4000F013AF9D040EA0C0093F061
:100F8000000F01F0004C02BF490011F4000F013BBB
:100F9000F9D041EA0C0195E70CEAD15392EA0C0F23
:100FA00008D142027FF47DAF93EA0C0F7FF470AF5B
:100FB000084676E793EA0C0F04D14B023FF44CAF9E
:100FC00008466EE730F0004C18BF31F0004CCAD133
:100FD00030F000427FF45CAF31F000437FF43CAF6F
:100FE0005FE700BF42000ED2B2F1FE4F0BD34FF0CD
:100FF0009E03B3EB126209D44FEA002343F000438F
:1010000023FA02F070474FF00000704712F1610FB1
:1010100001D1420202D14FF0FF3070474FF0000083
:10102000704700BF80B483B000AF0346FB80084B1D
:101030001B6800225A6200BF054B1B685A6AFB8876
:101040009A42F9D300BF00BF0C37BD4680BC704741
:101050004C02002080B586B000AF0023FB753B1D1D
:1010600000221A605A609A60DA604FF400737B6065
:101070000123BB6002233B610023FB603B1D19463B
:101080002C4801F07BF900224FF40071294801F04F
:1010900010FB142001F06AF801224FF4007125487A
:1010A00001F007FB1E20FFF7BDFF0023BB600123FB
:1010B000FB603B1D19461F4801F060F92820FFF72F
:1010C000B1FF4FF400711B4801F0DCFA0346002B1E
:1010D0000CD15020FFF7A6FF4FF40071154801F026
:1010E000D1FA0346002B01D00123FB7501F034F83F
:1010F0000346114A136001F02FF803460F4A1360AC
:1011000004E001F029F803460C4A13604FF4007123
:10111000084801F0B7FA0346002B06D0064B1B68BF
:101120009A1C064B1B689A42EBD8FB7D1846183771
:10113000BD4680BD000C0140E4020020E802002012
:1011400080B582B000AF0023FB7166E001F004F8C7
:101150000346364A136000F0FFFF0346344A13602B
:1011600004E000F0F9FF0346314A13604FF40071C8
:10117000304801F087FA0346002B06D12B4B1B6841
:101180009A1C2B4B1B689A42EBD82820FFF74AFF8A
:101190004FF40071274801F075FA0346002B0ED179
:1011A000FB79C3F10703012202FA03F35BB2DB43CD
:1011B0005AB297F9063013405BB2BB710BE0FB7972
:1011C000C3F10703012202FA03F35AB297F906307A
:1011D00013435BB2BB7100F0BFFF0346134A1360B9
:1011E00000F0BAFF0346124A136004E000F0B4FFB7
:1011F00003460F4A13604FF400710E4801F042FAA3
:101200000346002B06D0094B1B689A1C084B1B6831
:101210009A42EBD8FB790133FB71FB79072B95D907
:10122000BB7918460837BD4680BD00BFE4020020E8
:10123000E8020020000C0140B0B590B002AF00F011
:1012400033FF00F049F900F035FA00F08BF900F0B7
:10125000B7F900F005FA8A4802F06EFC00F076FA61
:10126000FFF7F8FE0346002B00F00481FFF768FF4C
:1012700003461A46834B1A70FFF762FF03461A466D
:10128000814B1A70FFF75CFF03461A467F4B1A70BA
:10129000FFF756FF03461A467D4B1A70FFF750FFC3
:1012A00003461A467B4B1A70764B1B781A46764BD0
:1012B0001B781344754A12781344754A1278134404
:1012C000744A1278934240F0D580704B1B781846D0
:1012D000FFF7E0FC04466E4B1B781846FFF792F8C8
:1012E0004FF000026C4BFFF721FA02460B46104606
:1012F0001946FFF7C9FB034619462046FFF71AFCBB
:1013000003461A46654B1A60644B1B6864491846CD
:10131000FFF718FD034663491846FFF7C7FD03466C
:101320004FF084411846FFF705FC03461A465E4B12
:101330001A60544B1B781846FFF7ACFC0446524B1E
:101340001B781846FFF75EF84FF00002524BFFF78C
:10135000EDF902460B4610461946FFF795FB03468A
:1013600019462046FFF7E6FB03461A464F4B1A6024
:101370004D4B1B681846FFF735FE0346DAB24C4B5F
:101380001A70494B1B684B491846FFF7DBFC0346B4
:101390001C46474B1B781A4613469B0013445B00C0
:1013A0001846FFF77BFC034619462046FFF7C0FBB3
:1013B00003461846FFF716FE0346DAB23E4B1A7094
:1013C000324B1B781A46324B1B783C493C4803F0A1
:1013D00067FD0021002000F021FB01223949384837
:1013E00000F0B0FB324B1B781A46334B1B78364962
:1013F000334803F055FD1421002000F00FFB0122BB
:1014000030492F4800F09EFB1E4B1B781A461E4B9E
:101410001B782E492A4803F043FD2821002000F0C4
:10142000FDFA01222749264800F08CFB00F052FA11
:101430001A4B1B681846FEF7F7FF04460D461B4B78
:101440001B681846FEF7F0FF02460B46381DCDE933
:10145000002322462B461E4903F022FD3B1D184661
:10146000FEF776FE03469AB2391D4FF0FF33194856
:1014700002F026FE4FF4FA6000F078FEF0E600BFBE
:101480004C020020DC020020DD020020DE020020F1
:10149000DF020020E002002000002440EC020020D7
:1014A000000010410000A040F0020020F4020020E3
:1014B000F802002000002041F902002030710008ED
:1014C000FC020020000000203C7100084871000868
:1014D000547100089402002080B590B000AF07F16D
:1014E000180328220021184603F03FFD3B1D00226F
:1014F0001A605A609A60DA601A610123BB614FF486
:101500008033FB6100233B620123BB6202237B63C8
:101510004FF48033BB634FF4E013FB6307F1180310
:10152000184601F0A9FE0346002B01D000F008F98F
:101530000F237B600223BB600023FB604FF48063BA
:101540003B6100237B613B1D0221184602F016F926
:101550000346002B01D000F0F3F800BF4037BD4632
:1015600080BD000080B500AF124B134A1A60114BCA
:10157000124A5A600F4B00229A600E4B0022DA602A
:101580000C4B4FF480421A610A4B00225A61094BFE
:1015900000229A61074B0022DA61064B00221A6290
:1015A000044801F09FF80346002B01D000F0C8F872
:1015B00000BF80BDF801002000540040801A0600E2
:1015C00080B586B000AF07F1080300221A605A60A8
:1015D0009A60DA603B4600221A605A601E4B1F4A2E
:1015E0001A601D4B47225A601B4B00229A601A4B0F
:1015F0004FF6FF72DA60184B00221A61164B002278
:101600005A61154B00229A61134802F045FA0346CD
:10161000002B01D000F094F84FF48053BB6007F129
:10162000080319460C4802F0D1FA0346002B01D0FA
:1016300000F086F800233B6000237B603B461946A0
:10164000054802F08FFC0346002B01D000F078F82B
:1016500000BF1837BD4680BD4C020020002C014061
:1016600080B500AF114B124A1A60104B4FF416525E
:101670005A600E4B00229A600C4B0022DA600B4B32
:1016800000221A61094B0C225A61084B00229A6110
:10169000064B0022DA61054802F0C2FC0346002B2B
:1016A00001D000F04DF800BF80BD00BF94020020C3
:1016B0000038014080B588B000AF07F11003002268
:1016C0001A605A609A60DA601A4B9B69194A43F0B3
:1016D00020039361174B9B6903F02003FB60FB68B9
:1016E000144B9B69134A43F004039361114B9B69AC
:1016F00003F00403BB60BB680E4B9B690D4A43F0CB
:10170000080393610B4B9B6903F008037B607B68C4
:101710004FF400733B61084B7B610023BB6107F111
:1017200010031946054800F029FE00BF2037BD46CA
:1017300080BD00BF0010024000001110000C0140ED
:1017400080B400AF72B600BF00BFFDE780B582B0C5
:1017500000AF00F01DFA44F62063012278215B48B7
:1017600001F002FA0346002B01D00023A9E040F665
:10177000C4137B6002E07B68013B7B607B68002BCD
:10178000F9D1AE220021782000F07CFA202200213D
:10179000782000F077FA10220021782000F072FA09
:1017A000B0220021782000F06DFAC82200217820B4
:1017B00000F068FA00220021782000F063FA10227D
:1017C0000021782000F05EFA40220021782000F00D
:1017D00059FA81220021782000F054FAFF220021DA
:1017E000782000F04FFAA1220021782000F04AFA78
:1017F000A6220021782000F045FAA82200217820B6
:1018000000F040FA3F220021782000F03BFAA422A9
:101810000021782000F036FAD3220021782000F051
:1018200031FA00220021782000F02CFAD522002184
:10183000782000F027FAF0220021782000F022FA28
:10184000D9220021782000F01DFA222200217820E0
:1018500000F018FADA220021782000F013FA1222A0
:101860000021782000F00EFADB220021782000F021
:1018700009FA20220021782000F004FA8D220021AC
:10188000782000F0FFF914220021782000F0FAF906
:10189000AF220021782000F0F5F92E2200217820D7
:1018A00000F0F0F9002000F043F800F013F8084BC6
:1018B00000221A80064B00225A80054B01225A71E1
:1018C000012318460837BD4680BD00BFF80100203F
:1018D0000C07002080B582B000AF0023FB711DE033
:1018E000FB79503BDBB21A460021782000F0CAF9A0
:1018F00000220021782000F0C5F910220021782074
:1019000000F0C0F9FB79DB01084A1A44802340212A
:10191000782000F051F9FB790133FB71FB79072B3B
:10192000DED900BF00BF0837BD4680BD0C030020D4
:1019300080B582B000AF0346FB71FB79002B01D16B
:10194000002300E0FF234FF480621946034803F0B0
:101950000CFB00BF0837BD4680BD00BF0C03002054
:1019600080B483B000AF0346FB800B46BB801346B8
:10197000FB70FB887F2B48D8BB883F2B45D8254B75
:101980001B79002B06D0FB78002B0CBF0123002312
:10199000DBB2FB70FB78012B1AD1FA88BB88DB081D
:1019A00098B20346DB0113441B4AD35C5AB2BB888E
:1019B00003F00703012101FA03F35BB2134359B2A9
:1019C000FA880346DB011344C9B2134AD1541DE01F
:1019D000FA88BB88DB0898B20346DB0113440E4A41
:1019E000D35C5AB2BB8803F00703012101FA03F369
:1019F0005BB2DB435BB2134059B2FA880346DB01AA
:101A00001344C9B2044AD15400E000BF0C37BD46AC
:101A100080BC70470C0700200C03002080B483B00A
:101A200000AF03460A46FB801346BB80054AFB888D
:101A30001380044ABB88538000BF0C37BD4680BC6E
:101A4000704700BF0C07002080B586B000AF03468A
:101A50003960FB711346BB71394B1B881A463B68D2
:101A60001B7813447F2B07DC354B5B881A463B6899
:101A70005B7813443F2B01DD00235DE000237B6195
:101A80004BE03B685A68FB79203B3968497801FB99
:101A900003F319467B690B445B0013441B88FB600E
:101AA00000233B6130E0FA683B6902FA03F303F478
:101AB0000043002B10D0224B1A883B699BB2134481
:101AC00098B21F4B5A887B699BB213449BB2BA7978
:101AD0001946FFF745FF14E0194B1A883B699BB282
:101AE000134498B2164B5A887B699BB2134499B23F
:101AF000BB79002B0CBF01230023DBB21A46FFF792
:101B00002FFF3B6901333B613B681B781A463B69F9
:101B10009342C8D37B6901337B613B685B781A468B
:101B20007B699342ADD3064B1B883A681278134405
:101B30009AB2034B1A80FB7918461837BD4680BD10
:101B40000C07002080B584B000AFF860B960134680
:101B5000FB7112E0FB681B78FA79B9681846FFF749
:101B600073FF03461A46FB681B789A4202D0FB6853
:101B70001B7808E0FB680133FB60FB681B78002BD7
:101B8000E8D1FB681B7818461037BD4680BD0000C1
:101B900080B483B000AF074B7B6002E07B68013B01
:101BA0007B607B68002BF9D100BF00BF0C37BD46BE
:101BB00080BC704790D0030090B5C7B002AF044618
:101BC000084607F58871A1F588710A60194607F57E
:101BD0008873A3F2091322461A7007F58873A3F5D8
:101BE000857302461A7007F58873A3F586730A4653
:101BF0001A8007F58873A3F5827307F58872A2F53A
:101C0000857212781A70002387F80F3115E097F863
:101C10000F3107F58872A2F5887212681A4497F896
:101C20000F310133117807F58872A2F58272D15411
:101C300097F80F31013387F80F3197F80F319BB2C6
:101C400007F58872A2F5867212889A42DFD807F5E6
:101C50008873A3F209131B7899B207F58873A3F56B
:101C600086731B8801339BB207F10C020A20009097
:101C7000034800F07BFE00BF07F58A77BD4690BDA4
:101C8000F801002080B586B002AF0346FB710B4619
:101C9000BB7113467B71BB793B737B797B73FB799B
:101CA00099B207F10C020A2300930223034800F0C3
:101CB0005DFE00BF1037BD4680BD00BFF8010020AB
:101CC00080B485B000AF154B9B69144A43F0010303
:101CD0009361124B9B6903F00103BB60BB680F4B20
:101CE000DB690E4A43F08053D3610C4BDB6903F090
:101CF00080537B607B680A4B5B68FB60FB6823F06A
:101D0000E063FB60FB6843F00073FB60044AFB6820
:101D1000536000BF1437BD4680BC704700100240BE
:101D20000000014080B588B000AF786007F1100373
:101D300000221A605A609A60DA607B681B68154A54
:101D4000934223D1144B9B69134A43F008039361D8
:101D5000114B9B6903F00803FB60FB68C0233B61E8
:101D600012237B610323FB6107F1100319460B4823
:101D700000F004FB084BDB69074A43F40013D3610E
:101D8000054BDB6903F40013BB60BB6800BF203761
:101D9000BD4680BD0054004000100240000C0140D0
:101DA00080B485B000AF78607B681B68094A9342B5
:101DB0000BD1094B9B69084A43F400639361064BBE
:101DC0009B6903F40063FB60FB6800BF1437BD46EA
:101DD00080BC7047002C01400010024080B588B0E4
:101DE00000AF786007F1100300221A605A609A6011
:101DF000DA607B681B681C4A934231D11B4B9B699C
:101E00001A4A43F480439361184B9B6903F480435F
:101E1000FB60FB68154B9B69144A43F00403936114
:101E2000124B9B6903F00403BB60BB684FF4007363
:101E30003B6102237B610323FB6107F11003194619
:101E40000B4800F09BFA4FF480633B6100237B61F9
:101E50000023BB6107F110031946054800F08EFA14
:101E600000BF2037BD4680BD003801400010024051
:101E70000008014080B400AF00BFFDE780B400AFB0
:101E800000BFFDE780B400AF00BFFDE780B400AF46
:101E900000BFFDE780B400AF00BFFDE780B400AF36
:101EA00000BFBD4680BC704780B400AF00BFBD46D8
:101EB00080BC704780B400AF00BFBD4680BC704797
:101EC00080B500AF00F036F900BF80BD80B400AF30
:101ED00001231846BD4680BC704780B582B000AF74
:101EE0007860396003F094F8034616221A604FF0C8
:101EF000FF3318460837BD4680BD80B582B000AFBD
:101F000078604FF0FF317868FFF7E7FF00BFFDE72B
:101F100080B586B000AFF860B9607A6000237B615D
:101F20000AE0AFF300800146BB685A1CBA60CAB22F
:101F30001A707B6901337B617A697B689A42F0DBB6
:101F40007B6818461837BD4680BD80B586B000AFA7
:101F5000F860B9607A6000237B6109E0BB685A1CB5
:101F6000BA601B781846AFF300807B6901337B6150
:101F70007A697B689A42F1DB7B6818461837BD4660
:101F800080BD80B483B000AF78604FF0FF33184657
:101F90000C37BD4680BC704780B483B000AF78601A
:101FA00039603B684FF400525A60002318460C37E2
:101FB000BD4680BC704780B483B000AF7860012319
:101FC00018460C37BD4680BC704780B485B000AF62
:101FD000F860B9607A60002318461437BD4680BCAB
:101FE0007047000080B586B000AF7860144A154B8A
:101FF000D31A7B617B693B61134B1B68002B02D1B9
:10200000114B124A1A60104B1A687B6813443A69E4
:102010009A4207D202F0FCFF03460C221A604FF0EE
:10202000FF3309E0084B1B68FB60074B1A687B68AD
:102030001344054A1360FB6818461837BD4680BD37
:102040000050002000040000140700206808002051
:1020500080B400AF00BFBD4680BC7047FFF7F8FFFB
:102060000B480C490C4A002302E0D458C4500433F6
:10207000C4188C42F9D3094A094C002301E01360CB
:102080000432A242FBD302F0C9FFFFF7D5F8704734
:1020900000000020DC0100206C820008DC01002030
:1020A00068080020FEE7000080B500AF084B1B6801
:1020B000074A43F010031360032000F02BF90F20B0
:1020C00000F008F8FFF7FCFD0023184680BD00BFB4
:1020D0000020024080B582B000AF7860124B1A68D1
:1020E000124B1B7819464FF47A73B3FBF1F3B2FB32
:1020F000F3F3184600F035F90346002B01D0012315
:102100000EE07B680F2B0AD8002279684FF0FF3071
:1021100000F00BF9064A7B681360002300E00123FE
:1021200018460837BD4680BD08000020100000207A
:102130000C00002080B400AF054B1B781A46054BFD
:102140001B681344034A136000BFBD4680BC704740
:10215000100000201807002080B400AF024B1B685D
:102160001846BD4680BC70471807002080B584B073
:1021700000AF7860FFF7F0FFB8607B68FB60FB683A
:10218000B3F1FF3F05D00A4B1B781A46FB68134496
:10219000FB6000BFFFF7E0FF0246BB68D31AFA6896
:1021A0009A42F7D800BF00BF1037BD4680BD00BFC0
:1021B0001000002080B485B000AF78607B6803F029
:1021C0000703FB600C4BDB68BB60BA684FF6FF038C
:1021D0001340BB60FB681A02BB68134343F0BF6344
:1021E00043F40033BB60044ABB68D36000BF1437BC
:1021F000BD4680BC704700BF00ED00E080B400AF7A
:10220000044BDB681B0A03F007031846BD4680BC7D
:10221000704700BF00ED00E080B483B000AF03461C
:102220003960FB7197F90730002B0ADB3B68DAB2A3
:102230000C4997F907301201D2B20B4483F80023FE
:102240000AE03B68DAB20849FB7903F00F03043B6C
:102250001201D2B20B441A7600BF0C37BD4680BCC7
:10226000704700BF00E100E000ED00E080B489B0FD
:1022700000AFF860B9607A60FB6803F00703FB61A8
:10228000FB69C3F10703042B28BF0423BB61FB696F
:102290000433062B02D9FB69033B00E000237B617A
:1022A0004FF0FF32BB6902FA03F3DA43BB681A400E
:1022B0007B699A404FF0FF317B6901FA03F3D94300
:1022C0007B680B40134318462437BD4680BC7047DB
:1022D00080B582B000AF78607B68013BB3F1807F4E
:1022E00001D301230FE00A4A7B68013B53600F21B1
:1022F0004FF0FF30FFF790FF054B00229A60044B30
:1023000007221A60002318460837BD4680BD00BF6B
:1023100010E000E080B582B000AF78607868FFF729
:1023200049FF00BF0837BD4680BD80B586B000AF0D
:102330000346B9607A60FB7300237B61FFF75EFFA1
:1023400078617A68B9687869FFF790FF024697F973
:102350000F3011461846FFF75FFF00BF1837BD4624
:1023600080BD80B582B000AF78607868FFF7B0FFBD
:10237000034618460837BD4680BD000080B48BB0C8
:1023800000AF7860396000237B6200233B6269E123
:1023900001227B6A02FA03F3FB613B681B68FA695E
:1023A0001340BB61BA69FB699A4240F058813B68AF
:1023B0005B689A4A93425ED0984A934275D8984A8D
:1023C000934258D0964A93426FD8964A934252D03D
:1023D000944A934269D8944A93424CD0924A934289
:1023E00063D8924A934246D0904A93425DD8122BCA
:1023F0002AD8122B59D801A252F823F077240008CA
:102400005124000863240008A5240008AB24000818
:10241000AB240008AB240008AB240008AB24000860
:10242000AB240008AB240008AB240008AB24000850
:10243000AB240008AB240008AB240008AB24000840
:10244000592400086D240008794A934213D02CE0E7
:102450003B68DB683B6229E03B68DB6804333B6236
:1024600024E03B68DB6808333B621FE03B68DB68C5
:102470000C333B621AE03B689B68002B02D10423BB
:102480003B6213E03B689B68012B05D108233B624C
:102490007B68FA691A6109E008233B627B68FA6984
:1024A0005A6103E000233B6200E000BFBB69FF2BE1
:1024B00001D87B6801E07B6804337B61BB69FF2B3B
:1024C00002D87B6A9B0002E07B6A083B9B003B6171
:1024D0007B691A680F213B6901FA03F3DB431A4059
:1024E000396A3B6901FA03F31A437B691A603B6856
:1024F0005B6803F08053002B00F0B1804D4B9B696B
:102500004C4A43F0010393614A4B9B6903F001037A
:10251000BB60BB68484A7B6A9B08023352F8233091
:10252000FB607B6A03F003039B000F2202FA03F3B4
:10253000DB43FA681340FB607B68404A934213D048
:102540007B683F4A93420DD07B683E4A934207D056
:102550007B683D4A934201D1032306E0042304E053
:10256000022302E0012300E000237A6A02F0030262
:1025700092009340FA681343FB602F497B6A9B08E3
:102580000233FA6841F823203B685B6803F4801348
:10259000002B06D02D4B9A682C49BB6913438B60E6
:1025A00006E02A4B9A68BB69DB43284913408B60DD
:1025B0003B685B6803F40013002B06D0234BDA68FA
:1025C0002249BB691343CB6006E0204BDA68BB6944
:1025D000DB431E491340CB603B685B6803F4003368
:1025E000002B06D0194B5A681849BB6913434B603E
:1025F00006E0164B5A68BB69DB43144913404B6035
:102600003B685B6803F48033002B21D00F4B1A68C2
:102610000E49BB6913430B6021E000BF000032107C
:1026200000003110000022100000211000001210E4
:10263000000011100010024000000140000801409D
:10264000000C014000100140001401400004014052
:102650000B4B1A68BB69DB43094913400B607B6A6B
:1026600001337B623B681A687B6A22FA03F3002B12
:102670007FF48EAE00BF00BF2C37BD4680BC7047D4
:102680000004014080B485B000AF78600B467B80C9
:102690007B689A687B881340002B02D00123FB7370
:1026A00001E00023FB73FB7B18461437BD4680BC5A
:1026B000704780B483B000AF78600B467B801346D0
:1026C0007B707B78002B03D07A887B681A6103E0EB
:1026D0007B881A047B681A6100BF0C37BD4680BC3A
:1026E0007047000080B584B000AF78607B68002B35
:1026F00001D101232BE17B6893F83D30DBB2002B45
:1027000006D17B68002283F83C207868FFF70AFB3B
:102710007B68242283F83D207B681B681A687B68ED
:102720001B6822F001021A607B681B681A687B68CC
:102730001B6842F400421A607B681B681A687B6859
:102740001B6822F400421A6001F060F9F8607B68AF
:102750005B68814A934207D8FB68804A934294BFE2
:1027600001230023DBB206E0FB687D4A934294BF5D
:1027700001230023DBB2002B01D00123E7E0FB683B
:10278000784AA2FB03239B0CBB607B681B685B68D9
:1027900023F03F017B681B68BA680A435A607B6874
:1027A0001B681B6A23F03F017B685B686A4A93429F
:1027B00002D8BB68013309E0BB684FF4967202FB94
:1027C00003F3694AA2FB03239B0901337A68126869
:1027D0000B4313627B681B68DB6923F44F4222F0D2
:1027E000FF027B685B685C498B4219D8FB68591E05
:1027F0007B685B685B00B1FBF3F3591C40F6FC732C
:102800000B40002B0AD0FB68591E7B685B685B009D
:10281000B1FBF3F30133C3F30B0351E004234FE0A7
:102820007B689B68002B11D1FB68581E7B68596838
:102830000B465B000B44B0FBF3F30133C3F30B0314
:10284000002B0CBF01230023DBB212E0FB68581EF3
:102850007B6859680B469B000B4499000B44B0FB06
:10286000F3F30133C3F30B03002B0CBF012300234D
:10287000DBB2002B01D0012322E07B689B68002B98
:102880000ED1FB68581E7B6859680B465B000B44F1
:10289000B0FBF3F30133C3F30B0343F400430FE046
:1028A000FB68581E7B6859680B469B000B449900D7
:1028B0000B44B0FBF3F30133C3F30B0343F4404386
:1028C000796809681343CB617B681B681B6823F038
:1028D000C0017B68DA697B681B6A1A437B681B68E6
:1028E0000A431A607B681B689B6823F4034323F048
:1028F000FF037A6811697A68D26811437A681268AE
:102900000B4393607B681B68DB6823F0FF017B68E7
:102910005A697B689B691A437B681B680A43DA60C3
:102920007B681B681A687B681B6842F001021A60AA
:102930007B6800221A647B68202283F83D207B6834
:1029400000221A637B68002283F83E200023184689
:102950001037BD4680BD00BFA08601007F841E00E9
:10296000FF083D0083DE1B43D34D621080B588B065
:1029700002AFF8607A601A460B467B8113463B81B2
:10298000FFF7EAFB7861FB6893F83D30DBB2202B60
:1029900040F0E0807B690093192301227049F868B8
:1029A00000F092FA0346002B01D00223D3E0FB682B
:1029B00093F83C30012B01D10223CCE0FB680122CB
:1029C00083F83C20FB681B681B6803F00103012BA4
:1029D00007D0FB681B681A68FB681B6842F001029D
:1029E0001A60FB681B681A68FB681B6822F40062A7
:1029F0001A60FB68212283F83D20FB68102283F8CF
:102A00003E20FB6800221A64FB687A685A62FB6801
:102A10003A895A85FB685B8D9AB2FB681A85FB6818
:102A2000504ADA6279897B693A6AF86800F0CAF933
:102A30000346002B01D001238DE000233B61FB689E
:102A40001B685B693B61FB681B689B693B613B6979
:102A500066E07A69396AF86800F050FB0346002B9B
:102A60000DD0FB681B6C042B07D1FB681B681A6830
:102A7000FB681B6842F400721A6001236BE0FB687C
:102A80005B6A1A78FB681B681A61FB685B6A5A1CF0
:102A9000FB685A62FB685B8D9BB2013B9AB2FB6894
:102AA0005A85FB681B8D013B9AB2FB681A85FB684F
:102AB0001B685B6903F00403042B1BD1FB681B8DAF
:102AC000002B17D0FB685B6A1A78FB681B681A61D9
:102AD000FB685B6A5A1CFB685A62FB685B8D9BB2A1
:102AE000013B9AB2FB685A85FB681B8D013B9AB289
:102AF000FB681A857A69396AF86800F047FB034673
:102B0000002B0DD0FB681B6C042B07D1FB681B68E6
:102B10001A68FB681B6842F400721A6001231AE00D
:102B2000FB681B8D002B94D1FB681B681A68FB683F
:102B30001B6842F400721A60FB68202283F83D2073
:102B4000FB68002283F83E20FB68002283F83C20CB
:102B5000002300E0022318461837BD4680BD00BFA1
:102B6000020010000000FFFF80B58AB002AFF860DD
:102B70007A603B600B467B81FFF7EEFAF861002339
:102B8000BB61FB6893F83D30DBB2202B40F0118134
:102B9000FB690093192301228849F86800F094F931
:102BA0000346002B01D0022304E1FB6893F83C307C
:102BB000012B01D10223FDE0FB68012283F83C20B8
:102BC000FB681B681B6803F00103012B07D0FB683F
:102BD0001B681A68FB681B6842F001021A60FB68F8
:102BE0001B681A68FB681B6822F400621A60FB68A5
:102BF000242283F83D20FB6800221A64FB68704A97
:102C0000DA62FB681B681A68FB681B6842F4807212
:102C10001A60FB6900933B6800224FF00111F868CD
:102C200000F052F90346002B0DD0FB681B681B68AF
:102C300003F48073B3F5807F03D1FB684FF4007217
:102C40001A640323B6E07B89DBB21A46FB681B6873
:102C500002F0FE021A61FFF77FFAF861FB681B6859
:102C60005B6903F00203022B0CBF01230023DBB2DC
:102C7000FB75FB681B685B6903F48063B3F5806FC9
:102C80000CBF01230023DBB2BB7525E0FFF764FA1C
:102C90000246FB69D31A3A689A4202D33B68002B7A
:102CA00003D1FB68A02283F83D20FB681B685B69A9
:102CB00003F00203022B0CBF01230023DBB2FB75E0
:102CC000FB681B685B6903F48063B3F5806F0CBF1E
:102CD00001230023DBB2BB75FB6893F83D30DBB208
:102CE000A02B05D0FB7D002B02D1BB7D002BCDD0CE
:102CF000FB68202283F83D20FB681B685B6903F0BA
:102D00000203022B29D1FB681B681A68FB681B6849
:102D100042F400721A6000233B61FB681B685B6928
:102D20003B61FB681B689B693B613B69FB690093E6
:102D3000192301222149F86800F0C6F80346002B48
:102D400001D0012336E0FB68202283F83D20FB6898
:102D5000002283F83C2000232CE0FB681B681A68E3
:102D6000FB681B6842F400721A60FB681B686FF412
:102D700080625A61FB690093192301220F49F868A8
:102D800000F0A2F80346002B01D0012312E0BB693A
:102D90000133BB61BA697B689A42FFF432AFFB68CA
:102DA000202283F83D20FB68002283F83C20012389
:102DB00000E0022318462037BD4680BD0200100007
:102DC0000000FFFF80B588B002AFF8607A603B601A
:102DD0000B467B81FB68DB6A7B617B69082B06D035
:102DE0007B69012B03D07B6913F5803F08D1FB6819
:102DF0001B681A68FB681B6842F480721A600BE05B
:102E0000FB681B6B122B07D1FB681B681A68FB68F9
:102E10001B6842F480721A603B6800937B68002252
:102E20004FF00111F86800F04FF80346002B0DD069
:102E3000FB681B681B6803F48073B3F5807F03D1C4
:102E4000FB684FF400721A64032335E0FB681B69CA
:102E5000B3F5804F08D17B89DBB21A46FB681B684B
:102E600002F0FE021A611BE07B89DB11DBB203F08A
:102E70000603DBB263F00F03DAB2FB681B681A616A
:102E80003B687A680E49F86800F098F80346002B12
:102E900001D0012310E07B89DAB2FB681B681A615C
:102EA0003B687A680749F86800F088F80346002B09
:102EB00001D0012300E0002318461837BD4680BD2D
:102EC000080001000200010080B584B000AFF86086
:102ED000B9603B601346FB7148E03B68B3F1FF3FCC
:102EE00044D0FFF739F90246BB69D31A3A689A42CF
:102EF00002D33B68002B39D1BB681B0CDBB2012B22
:102F00000DD1FB681B685B69DA43BB6813409BB259
:102F1000002B0CBF01230023DBB21A460CE0FB6838
:102F20001B689B69DA43BB6813409BB2002B0CBF44
:102F300001230023DBB21A46FB799A4216D1FB68C3
:102F400000221A63FB68202283F83D20FB680022E0
:102F500083F83E20FB681B6C43F02002FB681A6478
:102F6000FB68002283F83C20012323E0BB681B0C94
:102F7000DBB2012B0DD1FB681B685B69DA43BB68D0
:102F800013409BB2002B0CBF01230023DBB21A4677
:102F90000CE0FB681B689B69DA43BB6813409BB27B
:102FA000002B0CBF01230023DBB21A46FB799A42A7
:102FB00093D0002318461037BD4680BD80B584B03D
:102FC00000AFF860B9607A603B6071E0FB681B6835
:102FD0005B6903F48063B3F5806F23D1FB681B68E2
:102FE0001A68FB681B6842F400721A60FB681B6871
:102FF0006FF480625A61FB6800221A63FB6820222A
:1030000083F83D20FB68002283F83E20FB681B6CA0
:1030100043F00402FB681A64FB68002283F83C203A
:10302000012367E07B68B3F1FF3F41D0FFF794F8DD
:1030300002463B68D31A7A689A4202D37B68002B17
:1030400036D1BB681B0CDBB2012B0CD1FB681B68B3
:103050005B69DA43BB6813409BB2002B14BF0123AA
:103060000023DBB20BE0FB681B689B69DA43BB689B
:1030700013409BB2002B14BF01230023DBB2002BB3
:1030800016D0FB6800221A63FB68202283F83D20DB
:10309000FB68002283F83E20FB681B6C43F0200293
:1030A000FB681A64FB68002283F83C20012321E0BE
:1030B000BB681B0CDBB2012B0CD1FB681B685B6986
:1030C000DA43BB6813409BB2002B14BF01230023DB
:1030D000DBB20BE0FB681B689B69DA43BB681340FB
:1030E0009BB2002B14BF01230023DBB2002B7FF423
:1030F0006DAF002318461037BD4680BD80B584B043
:1031000000AFF860B9607A6034E0F86800F086F8E3
:103110000346002B01D0012334E0BB68B3F1FF3F2D
:1031200028D0FFF719F802467B68D31ABA689A428A
:1031300002D3BB68002B1DD1FB681B685B6903F0E1
:103140008003802B16D0FB6800221A63FB682022C4
:1031500083F83D20FB68002283F83E20FB681B6C4F
:1031600043F02002FB681A64FB68002283F83C20CD
:10317000012307E0FB681B685B6903F08003802B79
:10318000C3D1002318461037BD4680BD80B584B03A
:1031900000AFF860B9607A6034E0F86800F03EF89B
:1031A0000346002B01D0012334E0BB68B3F1FF3F9D
:1031B00028D0FEF7D1FF02467B68D31ABA689A423C
:1031C00002D3BB68002B1DD1FB681B685B6903F051
:1031D0000403042B16D0FB6800221A63FB6820222C
:1031E00083F83D20FB68002283F83E20FB681B6CBF
:1031F00043F02002FB681A64FB68002283F83C203D
:10320000012307E0FB681B685B6903F00403042BE0
:10321000C3D1002318461037BD4680BD80B483B0AB
:1032200000AF78607B681B685B6903F48063B3F56B
:10323000806F1BD17B681B686FF480625A617B686A
:1032400000221A637B68202283F83D207B680022DD
:1032500083F83E207B681B6C43F004027B681A6491
:103260007B68002283F83C20012300E000231846FD
:103270000C37BD4680BC704780B586B000AF786023
:103280007B68002B01D1012372E27B681B6803F08D
:103290000103002B00F08780924B5B6803F00C0366
:1032A000042B0CD08F4B5B6803F00C03082B12D15E
:1032B0008C4B5B6803F48033B3F5803F0BD1894BB3
:1032C0001B6803F40033002B6CD07B685B68002B19
:1032D00068D101234CE27B685B68B3F5803F06D17F
:1032E000804B1B687F4A43F4803313602EE07B6879
:1032F0005B68002B0CD17B4B1B687A4A23F480332C
:103300001360784B1B68774A23F4802313601DE019
:103310007B685B68B3F5A02F0CD1724B1B68714AB8
:1033200043F4802313606F4B1B686E4A43F4803371
:1033300013600BE06B4B1B686A4A23F48033136005
:10334000684B1B68674A23F4802313607B685B68C3
:10335000002B13D0FEF700FF386108E0FEF7FCFEFB
:1033600002463B69D31A642B01D9032300E25D4B6B
:103370001B6803F40033002BF0D014E0FEF7ECFEE2
:10338000386108E0FEF7E8FE02463B69D31A642B79
:1033900001D90323ECE1534B1B6803F40033002BEA
:1033A000F0D100E000BF7B681B6803F00203002B34
:1033B00063D04C4B5B6803F00C03002B0BD0494BE4
:1033C0005B6803F00C03082B1CD1464B5B6803F4CD
:1033D0008033002B16D1434B1B6803F00203002BF4
:1033E00005D07B681B69012B01D00123C0E13D4B57
:1033F0001B6823F0F8027B685B69DB0039491343E3
:103400000B603AE07B681B69002B20D0364B012211
:103410001A60FEF7A1FE386108E0FEF79DFE024645
:103420003B69D31A022B01D90323A1E12D4B1B6861
:1034300003F00203002BF0D02A4B1B6823F0F802A4
:103440007B685B69DB00274913430B6015E0264B63
:1034500000221A60FEF780FE386108E0FEF77CFE6D
:1034600002463B69D31A022B01D9032380E11D4B8D
:103470001B6803F00203002BF0D17B681B6803F08C
:103480000803002B3AD07B689B69002B19D0174B9F
:1034900001221A60FEF760FE386108E0FEF75CFE6C
:1034A00002463B69D31A022B01D9032360E10D4B7D
:1034B0005B6A03F00203002BF0D0012000F0CEFA8B
:1034C0001CE00A4B00221A60FEF746FE38610FE04E
:1034D000FEF742FE02463B69D31A022B08D90323AA
:1034E00046E100BF00100240000042428004424218
:1034F000924B5B6A03F00203002BE9D17B681B68E7
:1035000003F00403002B00F0A6800023FB758B4B17
:10351000DB6903F08053002B0DD1884BDB69874AB0
:1035200043F08053D361854BDB6903F08053BB606C
:10353000BB680123FB75824B1B6803F48073002B6F
:1035400018D17F4B1B687E4A43F480731360FEF7EB
:1035500003FE386108E0FEF7FFFD02463B69D31A1F
:10356000642B01D9032303E1754B1B6803F48073BB
:10357000002BF0D07B68DB68012B06D16F4B1B6AF8
:103580006E4A43F0010313622DE07B68DB68002B79
:103590000CD16A4B1B6A694A23F001031362674B23
:1035A0001B6A664A23F0040313621CE07B68DB6835
:1035B000052B0CD1614B1B6A604A43F00403136274
:1035C0005E4B1B6A5D4A43F0010313620BE05B4BE9
:1035D0001B6A5A4A23F001031362584B1B6A574A6D
:1035E00023F0040313627B68DB68002B15D0FEF721
:1035F000B3FD38610AE0FEF7AFFD02463B69D31A1E
:1036000041F28832934201D90323B1E04B4B1B6A4C
:1036100003F00203002BEED014E0FEF79DFD3861AD
:103620000AE0FEF799FD02463B69D31A41F288325F
:10363000934201D903239BE0404B1B6A03F0020332
:10364000002BEED1FB7D012B05D13C4BDB693B4AC6
:1036500023F08053D3617B68DB69002B00F0878007
:10366000364B5B6803F00C03082B61D07B68DB6989
:10367000022B46D1334B00221A60FEF76DFD3861F4
:1036800008E0FEF769FD02463B69D31A022B01D917
:1036900003236DE0294B1B6803F00073002BF0D16E
:1036A0007B681B6AB3F5803F08D1244B5B6823F429
:1036B00000327B689B68214913434B601F4B5B685A
:1036C00023F474127B68196A7B685B6A0B431B499D
:1036D00013434B601B4B01221A60FEF73DFD38611E
:1036E00008E0FEF739FD02463B69D31A022B01D9E7
:1036F00003233DE0114B1B6803F00073002BF0D057
:1037000035E0104B00221A60FEF726FD386108E014
:10371000FEF722FD02463B69D31A022B01D903238F
:1037200026E0064B1B6803F00073002BF0D11EE06F
:103730007B68DB69012B07D1012319E000100240EF
:1037400000700040600042420B4B5B68FB60FB680E
:1037500003F480327B681B6A9A4206D1FB6803F44B
:1037600070127B685B6A9A4201D0012300E000235B
:1037700018461837BD4680BD0010024080B584B0A1
:1037800000AF786039607B68002B01D10123D0E065
:103790006A4B1B6803F007033A689A4210D9674BDB
:1037A0001B6823F0070265493B6813430B60634BBA
:1037B0001B6803F007033A689A4201D00123B8E07E
:1037C0007B681B6803F00203002B20D07B681B681A
:1037D00003F00403002B05D0594B5B68584A43F4AF
:1037E000E06353607B681B6803F00803002B05D07F
:1037F000534B5B68524A43F460535360504B5B68D1
:1038000023F0F0027B689B684D4913434B607B6853
:103810001B6803F00103002B40D07B685B68012B21
:1038200007D1474B1B6803F40033002B15D101234C
:103830007FE07B685B68022B07D1414B1B6803F07C
:103840000073002B09D1012373E03D4B1B6803F08B
:103850000203002B01D101236BE0394B5B6823F09D
:1038600003027B685B68364913434B60FEF774FCC8
:10387000F8600AE0FEF770FC0246FB68D31A41F2DA
:103880008832934201D9032353E02D4B5B6803F048
:103890000C027B685B689B009A42EBD1274B1B684C
:1038A00003F007033A689A4210D2244B1B6823F0B6
:1038B000070222493B6813430B60204B1B6803F04F
:1038C00007033A689A4201D0012332E07B681B6803
:1038D00003F00403002B08D0194B5B6823F4E0626B
:1038E0007B68DB68164913434B607B681B6803F0F9
:1038F0000803002B09D0124B5B6823F460527B68ED
:103900001B69DB000E4913434B6000F021F80246AF
:103910000B4B5B681B0903F00F030A49CB5C22FACF
:1039200003F3094A1360094B1B681846FEF7D2FBE4
:10393000002318461037BD4680BD00BF002002405E
:1039400000100240BC7E0008080000200C0000208F
:1039500080B487B000AF0023FB600023BB6000236E
:103960007B6100237B6000233B611E4B5B68FB6037
:10397000FB6803F00C03042B02D0082B03D027E0D4
:10398000194B3B6127E0FB689B0C03F00F03174AC0
:10399000D35C7B60FB6803F48033002B10D0114BA9
:1039A0005B685B0C03F00103114AD35CBB607B686E
:1039B0000D4A03FB02F2BB68B2FBF3F37B6104E048
:1039C0007B680C4A02FB03F37B617B693B6102E08D
:1039D000054B3B6100BF3B6918461C37BD4680BCA8
:1039E000704700BF0010024000127A00D47E000829
:1039F000E47E000800093D0080B400AF024B1B6864
:103A00001846BD4680BC70470800002080B500AF56
:103A1000FFF7F2FF0246054B5B681B0A03F0070342
:103A20000349CB5C22FA03F3184680BD0010024024
:103A3000CC7E000880B500AFFFF7DEFF0246054BE5
:103A40005B68DB0A03F007030349CB5C22FA03F34C
:103A5000184680BD00100240CC7E000880B485B0BE
:103A600000AF78600A4B1B680A4AA2FB03235B0A7B
:103A70007A6802FB03F3FB6000BFFB685A1EFA6022
:103A8000002BF9D100BF00BF1437BD4680BC704782
:103A900008000020D34D621080B582B000AF78607E
:103AA0007B68002B01D1012341E07B6893F83D3016
:103AB000DBB2002B06D17B68002283F83C207868BB
:103AC000FEF76EF97B68022283F83D207B681A6856
:103AD0007B6804331946104600F040F97B680122E8
:103AE00083F846207B68012283F83E207B68012210
:103AF00083F83F207B68012283F840207B68012205
:103B000083F841207B68012283F842207B680122F0
:103B100083F843207B68012283F844207B680122DC
:103B200083F845207B68012283F83D200023184656
:103B30000837BD4680BD000080B485B000AF786016
:103B40007B6893F83D30DBB2012B01D0012332E0DA
:103B50007B68022283F83D207B681B68184A9342E9
:103B60000ED07B681B68B3F1804F09D07B681B685F
:103B7000144A934204D07B681B68134A934211D1C4
:103B80007B681B689B6803F00703FB60FB68062BE0
:103B900010D07B681B681A687B681B6842F00102C2
:103BA0001A6007E07B681B681A687B681B6842F034
:103BB00001021A60002318461437BD4680BC7047C6
:103BC000002C0140000400400008004080B584B093
:103BD00000AF786039600023FB737B6893F83C305A
:103BE000012B01D10223B4E07B68012283F83C2041
:103BF0007B68022283F83D207B681B689B68BB6062
:103C0000BB6823F07703BB60BB6823F47F43BB60D2
:103C10007B681B68BA689A603B681B68B3F5005FF5
:103C20003ED0B3F5005F00F28780B3F5805F00F00F
:103C30008680B3F5805F7FD8702B1AD0702B7BD82D
:103C4000602B50D0602B77D8502B3CD0502B73D8A2
:103C5000402B58D0402B6FD8302B64D0302B6BD8F2
:103C6000202B60D0202B67D8002B5CD0102B5AD093
:103C700062E07B6818683B6899683B685A683B68F3
:103C8000DB6800F050F97B681B689B68BB60BB6811
:103C900043F07703BB607B681B68BA689A604FE0AB
:103CA0007B6818683B6899683B685A683B68DB68C2
:103CB00000F039F97B681B689A687B681B6842F4DE
:103CC00080429A603CE07B6818683B6859683B68B2
:103CD000DB681A4600F0B0F87B681B685021184674
:103CE00000F007F92CE07B6818683B6859683B686E
:103CF000DB681A4600F0CEF87B681B686021184626
:103D000000F0F7F81CE07B6818683B6859683B686E
:103D1000DB681A4600F090F87B681B684021184663
:103D200000F0E7F80CE07B681A683B681B681946EE
:103D3000104600F0DEF803E00123FB7300E000BF53
:103D40007B68012283F83D207B68002283F83C20B9
:103D5000FB7B18461037BD4680BD000080B485B09F
:103D600000AF786039607B681B68FB607B682F4A16
:103D700093420BD07B68B3F1804F07D07B682C4A0D
:103D8000934203D07B682B4A934208D1FB6823F00F
:103D90007003FB603B685B68FA681343FB607B68F9
:103DA000224A93420BD07B68B3F1804F07D07B68E7
:103DB0001F4A934203D07B681E4A934208D1FB6896
:103DC00023F44073FB603B68DB68FA681343FB60D5
:103DD000FB6823F080023B685B691343FB607B68F0
:103DE000FA681A603B689A687B68DA623B681A680E
:103DF0007B689A627B680D4A934203D13B681A69DB
:103E00007B681A637B6801225A617B681B6903F037
:103E10000103002B05D07B681B6923F001027B683E
:103E20001A6100BF1437BD4680BC7047002C0140AA
:103E3000000400400008004080B487B000AFF86084
:103E4000B9607A60FB681B6A7B61FB681B6A23F0C0
:103E50000102FB681A62FB689B693B613B6923F0C6
:103E6000F0033B617B681B013A6913433B617B694B
:103E700023F00A037B617A69BB6813437B61FB68AB
:103E80003A699A61FB687A691A6200BF1C37BD46BD
:103E900080BC704780B487B000AFF860B9607A60CA
:103EA000FB681B6A7B61FB681B6A23F01002FB68DE
:103EB0001A62FB689B693B613B6923F470433B6179
:103EC0007B681B033A6913433B617B6923F0A003C2
:103ED0007B61BB681B017A6913437B61FB683A69AC
:103EE0009A61FB687A691A6200BF1C37BD4680BCC4
:103EF000704780B485B000AF786039607B689B689C
:103F0000FB60FB6823F07003FB603A68FB681343B7
:103F100043F00703FB607B68FA689A6000BF1437C0
:103F2000BD4680BC704780B487B000AFF860B96010
:103F30007A603B60FB689B687B617B6923F47F430D
:103F40007B613B681A027B681A43BB6813437A693A
:103F500013437B61FB687A699A6000BF1C37BD46DA
:103F600080BC704780B485B000AF786039607B68F2
:103F700093F83C30012B01D1022346E07B680122FB
:103F800083F83C207B68022283F83D207B681B6815
:103F90005B68FB607B681B689B68BB60FB6823F009
:103FA0007003FB603B681B68FA681343FB607B6827
:103FB0001B68FA685A607B681B68164A93420ED0E9
:103FC0007B681B68B3F1804F09D07B681B68124A7D
:103FD000934204D07B681B68104A93420CD1BB68A3
:103FE00023F08003BB603B685B68BA681343BB6027
:103FF0007B681B68BA689A607B68012283F83D2061
:104000007B68002283F83C20002318461437BD4605
:1040100080BC7047002C01400004004000080040B4
:1040200080B582B000AF78607B68002B01D101239E
:1040300042E07B6893F84130DBB2002B06D17B680D
:10404000002283F840207868FDF7C8FE7B682422B0
:1040500083F841207B681B68DA687B681B6822F460
:104060000052DA60786800F071F97B681B681A69A1
:104070007B681B6822F490421A617B681B685A694E
:104080007B681B6822F02A025A617B681B68DA6829
:104090007B681B6842F40052DA607B6800225A6435
:1040A0007B68202283F841207B68202283F842200D
:1040B0007B6800225A63002318460837BD4680BD3E
:1040C00080B58AB002AFF860B9603B601346FB80F0
:1040D00000237B61FB6893F84130DBB2202B75D164
:1040E000BB68002B02D0FB88002B01D101236EE0BE
:1040F000FB6800225A64FB68212283F84120FEF706
:104100002BF87861FB68FA889A84FB68FA88DA846D
:10411000FB689B68B3F5805F08D1FB681B69002BC7
:1041200004D10023FB61BB68BB6103E0BB68FB619A
:104130000023BB612EE03B6800937B690022802155
:10414000F86800F048F80346002B05D0FB682022F1
:1041500083F8412003233AE0FB69002B0BD1BB69B4
:104160001B881A46FB681B68C2F308025A60BB69C9
:104170000233BB6107E0FB691A78FB681B685A6071
:10418000FB690133FB61FB68DB8C9BB2013B9AB29C
:10419000FB68DA84FB68DB8C9BB2002BCBD13B68DD
:1041A00000937B6900224021F86800F014F8034670
:1041B000002B05D0FB68202283F84120032306E072
:1041C000FB68202283F84120002300E002231846E8
:1041D0002037BD4680BD80B586B000AFF860B960BD
:1041E0003B601346FB713BE03B6AB3F1FF3F37D0C6
:1041F000FDF7B2FF02463B68D31A3A6A9A4202D3ED
:104200003B6A002B01D103233AE0FB681B68DB68A3
:1042100003F00403002B23D0BB68802B20D0BB68A5
:10422000402B1DD0FB681B681B6803F00803082B9C
:1042300016D100237B61FB681B681B687B61FB68F0
:104240001B685B687B617B69F86800F01DF8FB68A0
:1042500008225A64FB68002283F8402001230FE003
:10426000FB681B681A68BB681340BA689A420CBFA7
:1042700001230023DBB21A46FB799A42B4D0002313
:1042800018461837BD4680BD80B495B000AF786041
:104290007B681B680C337B637B6B53E8003F3B639D
:1042A0003B6B23F49073FB647B681B680C33FA6CE4
:1042B0003A64FB63F96B3A6C41E80023BB63BB6B68
:1042C000002BE5D17B681B6814333B623B6A53E8E3
:1042D000003FFB61FB6923F00103BB647B681B6843
:1042E0001433BA6CFA62BB62B96AFA6A41E8002315
:1042F0007B627B6A002BE5D17B681B6B012B19D19C
:104300007B681B680C33FB60FB6853E8003FBB60B5
:10431000BB6823F010037B647B681B680C337A6CEA
:10432000BA617B617969BA6941E800233B613B6905
:10433000002BE5D17B68202283F842207B68002295
:104340001A6300BF5437BD4680BC704780B584B047
:1043500000AF78607B681B681B6923F440517B6861
:10436000DA687B681B680A431A617B689A687B6815
:104370001B691A437B685B691343BB607B681B68DE
:10438000DB6823F4B05323F00C037A681268B96831
:104390000B43D3607B681B685B6923F440717B68C7
:1043A0009A697B681B680A435A617B681B682C4AC0
:1043B000934203D1FFF73EFBF86002E0FFF726FBD4
:1043C000F860FA6813469B0013449A001A447B680D
:1043D0005B689B00B2FBF3F3224AA2FB03235B0959
:1043E0001901FA6813469B0013449A001A447B682B
:1043F0005B689B00B2FBF3F21A4BA3FB02035B0961
:10440000642000FB03F3D31A1B013233154AA2FBCD
:1044100003235B0903F0F0031944FA6813469B0079
:1044200013449A001A447B685B689B00B2FBF3F26A
:104430000C4BA3FB02035B09642000FB03F3D31ABC
:104440001B013233074AA2FB03235B0903F00F026F
:104450007B681B680A449A6000BF1037BD4680BD68
:10446000003801401F85EB51002B2DE9F0471D4618
:10447000BBBF03F100431D4600232D2388B0144623
:10448000B8BF1446129A109E1370149BDDF84CA00E
:1044900023F02008B8F1460F05D0B8F1450F00D140
:1044A0000136022300E0032307AA049206AACDE9FD
:1044B00002A2CDE9003622462B4600F06DFEB8F18F
:1044C000470F074619D1119BDB070ED500EB0609F4
:1044D0000022002320462946FCF766FA08B1CDF8F1
:1044E0001C903022079B4B451ED33846079B159ADC
:1044F000DB1B136008B0BDE8F087B8F1460F00EB96
:104500000609E5D10378302B0AD10022002320468A
:104510002946FCF749FA18B9C6F10106CAF8006045
:10452000DAF800309944D3E7591C07911A70D9E79B
:10453000F7B50029B6BF2D232B2349420929027064
:10454000437029DD0DF107031D460A27B1FBF7F67D
:104550001A4607FB1614303402F8014C0C46632C43
:10456000314603F1FF33F1DC3031941E03F8011CB6
:104570002346411CAB420AD30DF109039B1AAC42FE
:1045800088BF002302330344181A03B0F0BD13F8A8
:10459000016B01F8016FEDE7302330318370C1709A
:1045A000031DF1E72DE9F04F91B00C46DDF868806E
:1045B00016461F46054600F0E1FC036818460893BE
:1045C000FBF7C6FD00230E93D8F80030099007339F
:1045D00023F0070303F1080294F818A0D4F800B000
:1045E000C8F80020D3E9008929F000430B93CDF8E7
:1045F00028804FF0FF32DDE90A01C4E912899C4BA3
:10460000FCF704FA70BBDDE90A014FF0FF32984B6A
:10461000FCF7DEF930BB0022002340464946FCF798
:10462000CDF910B12D2384F84330924A924BBAF160
:10463000470F8CBF9046984603234FF00009236133
:104640002BF00403236033462146284600970FAA27
:1046500000F0D4F9013040F090804FF0FF3011B0FD
:10466000BDE8F08F42464B4640464946FCF7CEF93E
:1046700048B14B46002BB8BF2D23804AB8BF84F801
:1046800043307F4BD3E763680AF0DF015A1C3FD108
:104690000623636000224BF48063236006920EAA17
:1046A000CDE904A20DAA03920DF13302CDE9013246
:1046B00063684246009328464B460A91FFF7D4FEB2
:1046C0000A99804647290D9928D1C81C02DB6368E6
:1046D000994240DDAAF1020A5FFA8AFA524601398C
:1046E00004F150000D91FFF723FF0E9A8146131835
:1046F000012A236102DC2268D20701D5013323613C
:104700009DF83330002B9ED02D2384F843309AE758
:104710004729BFD1002BBDD10123BAE7BAF1650FFC
:10472000DCD9BAF1660F18D1002963680BDD21616D
:1047300013B92268D00702D501330B4423614FF02F
:104740000009A165DCE713B92268D20701D502335D
:10475000F4E70123F2E74FF0670A0E9B994205DB6D
:1047600023682161D807EAD54B1CE7E70029CCBFB5
:104770000122C1F102021344E0E723685A0507D47D
:104780002369424631462846B84701302BD164E7B9
:10479000BAF1650F40F2DC80D4E912010022002357
:1047A000FCF702F9002833D0012331462846354A68
:1047B000B84701303FF451AFDDE90D38434502DB26
:1047C0002368D8070FD5DDE9082331462846B847C6
:1047D00001303FF442AF4FF0000908F1FF3804F117
:1047E0001A0AC84509DC23689B0700F10281E068CA
:1047F0000F9B9842B8BF184631E701235246314615
:104800002846B84701303FF428AF09F10109E8E72D
:104810000D9B002B38DC012331462846194AB84746
:1048200001303FF41AAFDDE90D3959EA030302D133
:104830002368D907D7D5DDE9082331462846B8478C
:1048400001303FF40AAF4FF0000A04F11A0B0D9B40
:104850005B42534501DC4B4693E701235A46314600
:104860002846B84701303FF4F8AE0AF1010AEEE7F6
:10487000FFFFEF7FEA7E0008E67E0008F27E000878
:10488000EE7E0008F67E0008A36DDDF838A05345E3
:10489000A8BF5346002B994636DC4FF0000B29EA9F
:1048A000E97904F11A02A36D0A93A3EB09035B45AE
:1048B00031DC0D9B9A453ADC2368DA0737D40D9B2F
:1048C000AAEB03090A9BAAEB03039945A8BF9946E3
:1048D000B9F1000F33DC4FF0000829EAE97904F15F
:1048E0001A0B0D9BAAEB0303A3EB090343457FF7C8
:1048F0007AAF01235A4631462846B84701303FF483
:10490000ACAE08F10108ECE7424631462846B8470C
:104910000130C2D1A1E60123314628460A92B847A8
:1049200001303FF49AAE0A9A0BF1010BBBE7314616
:10493000DDE908232846B8470130C0D18DE60A9A40
:104940004B46314628464244B8470130C3D184E63D
:10495000DDF838A0BAF1010F01DCDB0736D5012301
:10496000424631462846B84701303FF476AEDDE98D
:10497000082331462846B84701303FF46EAED4E9EB
:104980001201002200230AF1FF3AFCF70DF8C0B92A
:10499000534608F1010231462846B84701300CD190
:1049A0005BE601235A4631462846B84701303FF4BA
:1049B00054AE08F10108D045F3DB4B4604F1500238
:1049C000E0E64FF0000804F11A0BF4E70123424639
:1049D000E1E701234A4631462846B84701303FF413
:1049E0003CAE08F10108E3680F995B1A4345F0DC1F
:1049F000FDE64FF0000804F11909F4E72DE9F0474E
:104A0000164698468A680B6907469342B8BF134614
:104A1000336091F843200C46DDF820900AB1013351
:104A200033602368990642BF3368023333602568D8
:104A300015F0060506D104F1190AE36832689B1ADD
:104A4000AB422BDC94F843302268003B18BF0123B3
:104A5000920630D44146384604F14302C84701303B
:104A600023D02368226903F00603042B14BF00251A
:104A700033684FF0000608BFE56804F11A0408BF68
:104A8000ED1A54F8123C08BF25EAE5759342C4BFFD
:104A90009B1AED18B5421AD1002008E001235246B6
:104AA00041463846C847013003D14FF0FF30BDE8DA
:104AB000F0870135C1E73020E11881F843005A1C26
:104AC00094F845102244023382F84310C2E70123D0
:104AD000224641463846C8470130E6D00136D9E77C
:104AE0002DE9FF470F7E9146782F80460C469A4667
:104AF0000C9E01F1430207D8622F0AD8002F00F064
:104B0000D180582F00F0B88004F1420684F842703A
:104B10003AE0A7F16303152BF6D801A151F823F071
:104B2000794B00088D4B0008094B0008094B000821
:104B3000094B0008094B00088D4B0008094B000881
:104B4000094B0008094B0008094B00088B4C000872
:104B5000B74B0008454C0008094B0008094B0008FA
:104B6000AD4C0008094B0008B74B0008094B000882
:104B7000094B00084D4C000833681A1D1B68326051
:104B800004F1420684F8423001239CE03368206837
:104B9000191D3160060601D51D6803E04506FBD5E9
:104BA000B3F90050002D03DA2D236D4284F8433011
:104BB0000A23584811E021683368080653F8045B5B
:104BC00002D4490648BFADB26F2F336014BF0A2329
:104BD00008235048002184F843106668002EA66020
:104BE00005DB21682E4321F0040121604BD01646DD
:104BF000B5FBF3F103FB1157C75D06F8017D2F46A6
:104C0000BB420D46F4D9082B0BD12368DF0708D52A
:104C1000236961689942DEBF302306F8013C06F142
:104C2000FF36921B22614B4621464046CDF800A03C
:104C300003AAFFF7E3FE01304AD14FF0FF3004B082
:104C4000BDE8F087236843F02003236078273248CB
:104C500084F84570236831681F0651F8045B02D45C
:104C60005F0648BFADB23160D90744BF43F02003AF
:104C700023601DB11023ADE72648E9E7236823F040
:104C800020032360F6E71646BDE733682568181D44
:104C9000616930602E061B6801D5196002E0680664
:104CA000FBD51980002316462361BCE73368002139
:104CB0001A1D32601E686268304600F0D6F908B1ED
:104CC000801B606063682361002384F84330AAE797
:104CD0003246494640462369D0470130ADD023686B
:104CE0009B0713D4E068039B9842B8BF1846A6E719
:104CF0000123324649464046D04701309DD0013518
:104D0000E36803995B1AAB42F2DCEBE7002504F1A0
:104D10001906F5E7F87E0008097F0008002310B5A2
:104D20000446C0E90033C0E90433836081814366EF
:104D3000C2818361194608225C3000F016F90D4BE0
:104D4000246263620C4BA3620C4BE3620C4B236343
:104D50000C4B9C4206D003F16802944202D0D0333F
:104D60009C4205D104F15800BDE8104000F07AB92A
:104D700010BD00BFE54E0008074F00083F4F000878
:104D8000634F00081C070020024A0349034800F053
:104D900069B800BF14000020E16900082400002069
:104DA00041680C4B10B59942044601D001F018FE41
:104DB000A168094B994202D0204601F011FEE1683A
:104DC000064B994204D02046BDE8104001F008BED1
:104DD00010BD00BF1C07002084070020EC07002046
:104DE00010B50B4B0B4C0C4A20461A6004210022D4
:104DF000FFF794FF04F1680001220921FFF78EFFFD
:104E000004F1D0000222BDE810401221FFF786BF56
:104E1000540800201C070020894D0008014800F0BC
:104E200022B900BF5D080020014800F01DB900BF95
:104E30005D08002010B50446FFF7F0FF236A1BB1A0
:104E4000BDE81040FFF7F0BF044B2362044B1B6822
:104E5000002BF5D1FFF7C4FFF2E700BFA14D00081A
:104E6000540800202DE9F8430746884614460026DA
:104E7000D4E90195B9F1010905D52468002CF7D1D1
:104E80003046BDE8F883AB89012B07D9B5F90E3060
:104E9000013303D029463846C04706436835E9E761
:104EA0000EB46FF0004110B500249DB01FAB02900E
:104EB0000690079104910948094953F8042B05917C
:104EC000006802A901931B9401F00EFC029B1C7068
:104ED0001DB0BDE8104003B0704700BF20000020A7
:104EE0000802FFFF10B50C46B1F90E1000F06CF887
:104EF0000028ABBF636DA3891B1823F48053ACBF9C
:104F00006365A38110BD2DE9F0411F468B890546DD
:104F1000DB050C46164605D502230022B1F90E101A
:104F200000F040F8A389324623F48053A381284639
:104F30003B46B4F90E10BDE8F04100F057B810B58B
:104F40000C46B1F90E1000F02DF8431CA38915BFD3
:104F5000606523F4805343F48053A38118BFA38179
:104F600010BDB1F90E1000F00DB803460244934293
:104F700000D1704703F8011BF9E7000000487047B3
:104F80006001002038B50023054D044608462B601B
:104F9000FCF7F7FF431C02D12B6803B1236038BD37
:104FA0005808002038B50446084611460022054D31
:104FB0002A601A46FDF709F8431C02D12B6803B199
:104FC000236038BD5808002038B50446084611460D
:104FD0000022054D2A601A46FCF79AFF431C02D1B5
:104FE0002B6803B1236038BD5808002038B504464B
:104FF000084611460022054D2A601A46FCF7A5FF17
:10500000431C02D12B6803B1236038BD580800202F
:10501000014B1868704700BF2000002070B50026C3
:105020000C4D0D4C641BA410A64209D102F074F87B
:1050300000260A4D0A4C641BA410A64205D170BD7F
:1050400055F8043B98470136EEE755F8043B98477E
:105050000136F2E764820008648200086482000876
:1050600068820008704770477047034610B5C9B2A0
:1050700002449342184601D1002003E00478013332
:105080008C42F6D110BD2DE9F74F03690C69074634
:10509000A3427EDB013CA30000F1140501F11408DA
:1050A000009305EB8403019358F8243055F824202D
:1050B00001339A42B2FBF3F608EB84092ED34FF08A
:1050C000000AC446AE46D3465CF8043B98B206FBE1
:1050D00000A01B0C020C06FB0323DEF8002080B2AC
:1050E00092B2121A5A44DEF800004FEA134A9BB2F9
:1050F000C3EB224303EB104392B242EA0342E14581
:105100004FEA234B4EF8042BDED2009BEB582BB911
:10511000019B043B9D421A462FD33C61384601F067
:105120007FF9002825DB2946002058F8042BD1F808
:1051300000C01FFA82FE1FFA8CF3A3EB0E03034498
:10514000120CC2EB234202EB1C429BB243EA024325
:10515000C1454FEA224041F8043BE6D255F82420ED
:1051600005EB840322B9043B9D421A460BD33C61F4
:105170000136304603B0BDE8F08F1268043B002AC8
:10518000CBD1013CC6E71268043B002AEFD1013CB9
:10519000EAE70020EEE700002DE9F04F14461D4637
:1051A000C76997B08146CDE90645239E7FB9102097
:1051B00000F00EFE0246C9F81C0020B9EF21AC4BEE
:1051C000AC4801F06DFCC0E901770760C760D9F811
:1051D0001C30196859B15A68012393404A608B60AA
:1051E000484600F0EBFE0022D9F81C301A602B1E56
:1051F000AFBF0023012223F000430793A8BF336011
:10520000DDF81C809C4BB8BF326033EA080312D132
:1052100042F20F73229A1360C8F31303234300F082
:105220005E85249BDFF854A2002B00F060850AF114
:10523000030300F05ABDDDE90623CDE90C23DDE9C7
:105240000C0100220023FBF7AFFB074658B10123F6
:10525000229A1360249B13B1894B249A1360DFF8C0
:1052600024A200F044BD14AB019315AB0093484653
:10527000DDE90C2301F084F9C8F30A560390002EEF
:1052800078D0DDE90C010D9BA6F2FF36C3F31303C2
:1052900043F07F5343F440131297194600227A4B90
:1052A000FAF762FF6CA3D3E90023FBF715F96CA3AF
:1052B000D3E90023FAF75AFF044630460D46FBF7C0
:1052C000A1F869A3D3E90023FBF706F902460B46D0
:1052D00020462946FAF74AFF04460D46FBF7ACFB89
:1052E00000220746002320462946FBF767FB40B112
:1052F0003846FBF787F822462B46FBF755FB00B9EB
:10530000013F162F54D8DDE90C01604B03EBC703B6
:10531000D3E90023FBF752FB00284BD00023013FC9
:105320000F93149B9B1B5A1E49BFC3F1010300231B
:1053300004930023099254BF04930993002F3BDB8D
:10534000099B0E973B44099300230A93209B092B4A
:1053500065D8052BC4BF043B2093209BC8BF002405
:10536000A3F10203D8BF0124032B64D8DFE803F0C4
:105370005355382CDDE914631E4406F23243202BCA
:10538000C1BFC3F1400308FA03F806F2124324FA3E
:1053900003F3D6BFC3F1200348EA030004FA03F085
:1053A000FBF720F80122A1F1F873013E129274E795
:1053B0000123B5E70F90B4E7049BDB1B04937B420A
:1053C0000A9300230E93C1E701230B93219B07EB64
:1053D000030B0BF10103012B0893B8BF012306E077
:1053E00001230B93219B002B28DD9B460893002172
:1053F0000422D9F81C0002F114059D4226D941600F
:10540000484600F09BFD8246002843D1024640F208
:10541000AF111F4BD4E60023E3E70023D5E70124B7
:1054200000230B9420934FF0FF3B00221223CDF872
:1054300020B02192DBE701230B93F4E74FF0010B3F
:105440005B46CDF820B0CDF884B0D0E701315200F2
:10545000D1E700BFAFF3008061436F63A787D23FFE
:10546000B3C8608B288AC63FFB799F501344D33F53
:10547000277F00083E7F00080000F07F237F0008A0
:10548000F77E0008F67E00080000F83F90800008D4
:10549000967F0008D9F81C301860089B0E2B00F28C
:1054A000A180002C00F09E80002F33DD9C4B07F084
:1054B0000F0203EBC203F805D3E90034CDE9103441
:1054C0004FEA271416D5DDE90C01964B0326D3E9E4
:1054D0000823FBF72BF9CDE9060104F00F04914DE9
:1054E00054B9DDE91023DDE90601FBF71FF9CDE929
:1054F000060128E00226F2E7E10708D5DDE9100100
:10550000D5E90023FAF7E8FFCDE910010136641070
:105510000835E5E700F0AF80DDE90C017C42804B07
:1055200004F00F0203EBC203D3E90023FAF7D4FF20
:1055300002260023CDE906017A4D2411002C40F00B
:105540008F80002BD3D1DDE906450F9B002B00F0A7
:105550009480002220462946734BFBF72FFA00283F
:1055600000F08B80089B002B00F08780BBF1000FC0
:1055700034DD2046002229466C4BFAF7ADFF5C462D
:10558000CDE9060107F1FF3801363046FAF73AFF58
:10559000DDE90623FAF7A0FF0022654BFAF7E6FDE6
:1055A0000546A1F15076002C6AD1DDE90601002202
:1055B000604BFAF7D9FD02460B46CDE906232A4691
:1055C0003346FBF719FA002840F09882DDE906011E
:1055D0002A4606F10043FBF7F1F938BBDDE90C344C
:1055E000CDE90634159B002BC0F257810E2F00F336
:1055F00054814B4B03EBC703D3E90034CDE90434AA
:10560000219B002B80F2E580089B002B00F3E180BA
:105610000CD1DDE904010022464BFAF75DFFDDE91C
:105620000623FBF7DFF9002800F0668200242546F8
:10563000219B56466FEA030800272146484600F0A2
:10564000BDFC002D00F0BD802FB1AF4203D0394624
:10565000484600F0B3FC2946484600F0AFFCB0E0F5
:10566000E20705D5D5E90023FAF736FF0123013615
:105670006410083562E7022665E7B846089C84E7AF
:10568000274B0B9903EBC40353E90223544400292D
:1056900054D000202849FBF749F833462A46FAF748
:1056A00063FD5646CDE91001DDE90601FBF7C4F9BB
:1056B0000546FAF7A7FE02460B46DDE90601FAF7B2
:1056C00053FD02460B463035CDE90623DDE91023B4
:1056D00006F8015BFBF772F9002872D1DDE90623B9
:1056E00000201149FAF740FDDDE91023FBF766F9C8
:1056F000002840F0B480A6423FF470AFDDE910010D
:1057000000220A4BFAF7E8FE0022CDE91001DDE99C
:105710000601064BFAF7E0FECDE90601C4E700BF3B
:1057200090800008688000080000F03F00002440DE
:1057300000001C40000014400000E03F31462846B5
:10574000FAF7CAFE5646CDE910011394DDE90601C9
:10575000FBF772F90546FAF755FE02460B46DDE9FE
:105760000601FAF701FD02460B46303506F8015BEB
:10577000A642CDE906234FF0000224D1DDE9100155
:10578000AE4BFAF7F3FC02460B46DDE90601FBF7E8
:1057900033F9002863D1DDE910230020A749FAF787
:1057A000E3FC02460B46DDE90601FBF707F900289A
:1057B0003FF414AF139E731E139316F8013C302B65
:1057C000F8D047463BE09E4BFAF786FECDE906014E
:1057D000BCE75646DDE90645DDE9042320462946B7
:1057E000FAF7A4FFFBF728F98046FAF70BFEDDE98C
:1057F0000423FAF771FE02460B4620462946FAF7C3
:10580000B3FC08F13004089D06F8014BA6EB0A042E
:10581000A54202460B4633D1FAF7A8FCDDE9042382
:1058200004460D46FBF7E8F8C0B9DDE9042320463D
:105830002946FBF7B9F810B118F0010F0ED1484610
:10584000039900F0BBFB00233370229B01371F60DC
:10585000249B002B00F04B821E6048E2B846334682
:105860001E4613F8012D392A06D19A45F8D1302267
:1058700008F101088AF800201A7801321A70A0E7AE
:1058800000226F4BFAF728FE0022002304460D4643
:10589000FBF78AF800289FD0D1E70B9A002A00F086
:1058A000EA80209A012A00F3CD80129A002A00F0A3
:1058B000C18003F233430A9C049E049A01211A44D6
:1058C0000492099A48461A44099200F02BFC0546B6
:1058D00066B1099B002B09DDB342A8BF3346049A89
:1058E000F61AD21A0492099AD31A09930A9B0BB397
:1058F0000B9B002B00F0C680002C00F0C0802946D6
:105900002246484600F0C6FC039A01460546484632
:1059100000F01EFC03998046484600F04FFB0A9BAE
:105920001B1B0A9300F0B18041460A9A484600F0DA
:10593000B1FC03900121484600F0F4FB0E9B0446A5
:10594000002B00F0D8811A460146484600F0A2FC20
:10595000209B0446012B00F39F80069B002B40F008
:105960009780079BC3F31303002B40F09380079BA2
:1059700023F000431B0D1B0533B1049B013304933B
:10598000099B0133099301230A930E9B002B00F01E
:10599000B881236904EB8303186900F077FBC0F139
:1059A0002000099B184410F01F0000F08280C0F115
:1059B0002003042B73DD049BC0F11C0003440493FB
:1059C000099B064403440993049B002B05DD1A46FA
:1059D0004846039900F0B8FC0390099B002B05DDB5
:1059E00021461A46484600F0AFFC04460F9B002BA8
:1059F00061D02146039800F013FD00285BDA0023F4
:105A00000A224846039900F0FBFA0B9B07F1FF3886
:105A10000390002B00F07781294600230A22484694
:105A200000F0EEFABBF1000F05466FDC209B022B65
:105A300049DC6BE0149BC3F136033CE70000E03F18
:105A400000002440089B5C1E0A9BA34209DB1C1B30
:105A5000089B002BBFF630AF049B089A9E1A0023C8
:105A60002BE70A9B0E9AE31A1A440A94049E002418
:105A7000089B0E9221E70A9C049E0B9D28E7DDF807
:105A80000C8051E70A9A039950E7CDF80C8051E752
:105A9000002379E7069B77E700230A9379E793D001
:105AA000049A1C331A440492099A1E441A44099217
:105AB0008AE70346F4E7089BB846002B20DC9B46A8
:105AC000209B022B1EDDBBF1000F7FF4B1AD214600
:105AD0005B460522484600F093FA014604460398C7
